{
  "_format": "hh-sol-artifact-1",
  "contractName": "UniswapV2Oracle",
  "sourceName": "contracts/uniswapv2/UniswapV2Oracle.sol",
  "abi": [
    {
      "inputs": [
        {
          "internalType": "address",
          "name": "factory_",
          "type": "address"
        },
        {
          "internalType": "uint256",
          "name": "windowSize_",
          "type": "uint256"
        },
        {
          "internalType": "uint8",
          "name": "granularity_",
          "type": "uint8"
        }
      ],
      "stateMutability": "nonpayable",
      "type": "constructor"
    },
    {
      "inputs": [
        {
          "internalType": "address",
          "name": "tokenIn",
          "type": "address"
        },
        {
          "internalType": "uint256",
          "name": "amountIn",
          "type": "uint256"
        },
        {
          "internalType": "address",
          "name": "tokenOut",
          "type": "address"
        }
      ],
      "name": "consult",
      "outputs": [
        {
          "internalType": "uint256",
          "name": "amountOut",
          "type": "uint256"
        }
      ],
      "stateMutability": "view",
      "type": "function"
    },
    {
      "inputs": [],
      "name": "factory",
      "outputs": [
        {
          "internalType": "address",
          "name": "",
          "type": "address"
        }
      ],
      "stateMutability": "view",
      "type": "function"
    },
    {
      "inputs": [
        {
          "internalType": "address",
          "name": "pair",
          "type": "address"
        }
      ],
      "name": "getFirstObservationInWindow2",
      "outputs": [
        {
          "components": [
            {
              "internalType": "uint256",
              "name": "timestamp",
              "type": "uint256"
            },
            {
              "internalType": "uint256",
              "name": "price0Cumulative",
              "type": "uint256"
            },
            {
              "internalType": "uint256",
              "name": "price1Cumulative",
              "type": "uint256"
            }
          ],
          "internalType": "struct UniswapV2Oracle.Observation",
          "name": "firstObservation",
          "type": "tuple"
        }
      ],
      "stateMutability": "view",
      "type": "function"
    },
    {
      "inputs": [
        {
          "internalType": "address",
          "name": "tokenA",
          "type": "address"
        },
        {
          "internalType": "address",
          "name": "tokenB",
          "type": "address"
        }
      ],
      "name": "getPair",
      "outputs": [
        {
          "internalType": "address",
          "name": "",
          "type": "address"
        }
      ],
      "stateMutability": "view",
      "type": "function"
    },
    {
      "inputs": [
        {
          "internalType": "address",
          "name": "tokenA",
          "type": "address"
        },
        {
          "internalType": "address",
          "name": "tokenB",
          "type": "address"
        }
      ],
      "name": "getPrice",
      "outputs": [
        {
          "internalType": "uint256",
          "name": "",
          "type": "uint256"
        },
        {
          "internalType": "uint256",
          "name": "",
          "type": "uint256"
        }
      ],
      "stateMutability": "view",
      "type": "function"
    },
    {
      "inputs": [
        {
          "internalType": "address",
          "name": "tokenIn",
          "type": "address"
        },
        {
          "internalType": "address",
          "name": "tokenOut",
          "type": "address"
        }
      ],
      "name": "getTimeElapsed",
      "outputs": [
        {
          "internalType": "uint256",
          "name": "",
          "type": "uint256"
        }
      ],
      "stateMutability": "view",
      "type": "function"
    },
    {
      "inputs": [],
      "name": "granularity",
      "outputs": [
        {
          "internalType": "uint8",
          "name": "",
          "type": "uint8"
        }
      ],
      "stateMutability": "view",
      "type": "function"
    },
    {
      "inputs": [
        {
          "internalType": "uint256",
          "name": "timestamp",
          "type": "uint256"
        }
      ],
      "name": "observationIndexOf",
      "outputs": [
        {
          "internalType": "uint8",
          "name": "index",
          "type": "uint8"
        }
      ],
      "stateMutability": "view",
      "type": "function"
    },
    {
      "inputs": [
        {
          "internalType": "address",
          "name": "",
          "type": "address"
        },
        {
          "internalType": "uint256",
          "name": "",
          "type": "uint256"
        }
      ],
      "name": "pairObservations",
      "outputs": [
        {
          "internalType": "uint256",
          "name": "timestamp",
          "type": "uint256"
        },
        {
          "internalType": "uint256",
          "name": "price0Cumulative",
          "type": "uint256"
        },
        {
          "internalType": "uint256",
          "name": "price1Cumulative",
          "type": "uint256"
        }
      ],
      "stateMutability": "view",
      "type": "function"
    },
    {
      "inputs": [],
      "name": "periodSize",
      "outputs": [
        {
          "internalType": "uint256",
          "name": "",
          "type": "uint256"
        }
      ],
      "stateMutability": "view",
      "type": "function"
    },
    {
      "inputs": [
        {
          "internalType": "address",
          "name": "tokenA",
          "type": "address"
        },
        {
          "internalType": "address",
          "name": "tokenB",
          "type": "address"
        }
      ],
      "name": "update",
      "outputs": [],
      "stateMutability": "nonpayable",
      "type": "function"
    },
    {
      "inputs": [],
      "name": "windowSize",
      "outputs": [
        {
          "internalType": "uint256",
          "name": "",
          "type": "uint256"
        }
      ],
      "stateMutability": "view",
      "type": "function"
    }
  ],
  "bytecode": "0x6101006040523480156200001257600080fd5b5060405162001476380380620014768339810160408190526200003591620000de565b60018160ff1611620000645760405162461bcd60e51b81526004016200005b9062000183565b60405180910390fd5b8160ff82168082816200007357fe5b0460e081905202146200009a5760405162461bcd60e51b81526004016200005b9062000133565b60a09190915260f81b7fff000000000000000000000000000000000000000000000000000000000000001660c05260601b6001600160601b031916608052620001b8565b600080600060608486031215620000f3578283fd5b83516001600160a01b03811681146200010a578384fd5b60208501516040860151919450925060ff8116811462000128578182fd5b809150509250925092565b60208082526030908201527f536c6964696e6757696e646f774f7261636c653a2057494e444f575f4e4f545f60408201526f4556454e4c595f444956495349424c4560801b606082015260800190565b6020808252818101527f536c6964696e6757696e646f774f7261636c653a204752414e554c4152495459604082015260600190565b60805160601c60a05160c05160f81c60e05161123c6200023a6000398061036052806105d2528061066e52806106ce5250806101e6528061028d528061052f528061069a528061079b5250806102b1528061031752806103845250806102db528061043b52806104c152806104ea528061062852806106f7525061123c6000f3fe608060405234801561001057600080fd5b50600436106100b45760003560e01c8063c45a015511610071578063c45a015514610162578063c640752d14610177578063cebb6a6c1461018c578063dbaad32f1461019f578063e4463eb2146101b2578063e6a43905146101ba576100b4565b806301687ae6146100b9578063556f0dc7146100e25780638a14117a146100f75780638c86f1e41461010c578063ac41865a1461011f578063bfcc8e4214610140575b600080fd5b6100cc6100c7366004610db3565b6101cd565b6040516100d9919061117d565b60405180910390f35b6100ea61028b565b6040516100d991906111cb565b6100ff6102af565b6040516100d9919061119e565b6100ff61011a366004610e2c565b6102d3565b61013261012d366004610dce565b610431565b6040516100d99291906111a7565b61015361014e366004610e02565b610480565b6040516100d9939291906111b5565b61016a6104bf565b6040516100d99190610f63565b61018a610185366004610dce565b6104e3565b005b6100ff61019a366004610dce565b610620565b6100ea6101ad366004610eb6565b610669565b6100ff6106cc565b61016a6101c8366004610dce565b6106f0565b6101d5610d56565b60006101e042610669565b905060007f000000000000000000000000000000000000000000000000000000000000000060ff168260010160ff168161021657fe5b069050600080856001600160a01b03166001600160a01b031681526020019081526020016000208160ff168154811061024b57fe5b9060005260206000209060030201604051806060016040529081600082015481526020016001820154815260200160028201548152505092505050919050565b7f000000000000000000000000000000000000000000000000000000000000000081565b7f000000000000000000000000000000000000000000000000000000000000000081565b6000806103017f00000000000000000000000000000000000000000000000000000000000000008685610719565b9050600061030e82610789565b805490915042037f000000000000000000000000000000000000000000000000000000000000000081111561035e5760405162461bcd60e51b815260040161035590610f77565b60405180910390fd5b7f00000000000000000000000000000000000000000000000000000000000000006002027f0000000000000000000000000000000000000000000000000000000000000000038110156103c35760405162461bcd60e51b815260040161035590610fca565b6000806103cf85610817565b509150915060006103e08a89610a0c565b509050896001600160a01b0316816001600160a01b0316141561041a5761040d856001015484868c610a8f565b965050505050505061042a565b61040d856002015483868c610a8f565b9392505050565b60008060006104617f00000000000000000000000000000000000000000000000000000000000000008686610719565b905060008061046f83610817565b5090955093505050505b9250929050565b6000602052816000526040600020818154811061049957fe5b600091825260209091206003909102018054600182015460029092015490935090915083565b7f000000000000000000000000000000000000000000000000000000000000000081565b60006105107f00000000000000000000000000000000000000000000000000000000000000008484610719565b6001600160a01b0381166000908152602081905260409020549091505b7f000000000000000000000000000000000000000000000000000000000000000060ff16811015610581576001600160a01b038216600090815260208190526040812080546001908101825591520161052d565b50600061058d42610669565b6001600160a01b03831660009081526020819052604081208054929350909160ff84169081106105b957fe5b60009182526020909120600390910201805490915042037f00000000000000000000000000000000000000000000000000000000000000008111156106185760008061060486610817565b504286556001860191909155600285015550505b505050505050565b60008061064e7f00000000000000000000000000000000000000000000000000000000000000008585610719565b9050600061065b82610789565b544203925050505b92915050565b6000807f0000000000000000000000000000000000000000000000000000000000000000838161069557fe5b0490507f000000000000000000000000000000000000000000000000000000000000000060ff1681816106c457fe5b069392505050565b7f000000000000000000000000000000000000000000000000000000000000000081565b600061042a7f000000000000000000000000000000000000000000000000000000000000000084845b60008060006107288585610a0c565b91509150858282604051602001610740929190610ee6565b60405160208183030381529060405280519060200120604051602001610767929190610f0d565b60408051601f1981840301815291905280516020909101209695505050505050565b60008061079542610669565b905060007f000000000000000000000000000000000000000000000000000000000000000060ff168260010160ff16816107cb57fe5b069050600080856001600160a01b03166001600160a01b031681526020019081526020016000208160ff168154811061080057fe5b906000526020600020906003020192505050919050565b6000806000610824610ae2565b9050836001600160a01b0316635909c0d56040518163ffffffff1660e01b815260040160206040518083038186803b15801561085f57600080fd5b505afa158015610873573d6000803e3d6000fd5b505050506040513d601f19601f820116820180604052508101906108979190610ece565b9250836001600160a01b0316635a3d54936040518163ffffffff1660e01b815260040160206040518083038186803b1580156108d257600080fd5b505afa1580156108e6573d6000803e3d6000fd5b505050506040513d601f19601f8201168201806040525081019061090a9190610ece565b91506000806000866001600160a01b0316630902f1ac6040518163ffffffff1660e01b815260040160606040518083038186803b15801561094a57600080fd5b505afa15801561095e573d6000803e3d6000fd5b505050506040513d601f19601f820116820180604052508101906109829190610e6d565b9250925092508363ffffffff168163ffffffff1614610a025780840363ffffffff81166109bb6001600160701b03808616908716610aec565b600001516001600160e01b031602870196508063ffffffff166109f0856001600160701b0316856001600160701b0316610aec565b516001600160e01b0316029590950194505b5050509193909250565b600080826001600160a01b0316846001600160a01b03161415610a415760405162461bcd60e51b81526004016103559061104d565b826001600160a01b0316846001600160a01b031610610a61578284610a64565b83835b90925090506001600160a01b0382166104795760405162461bcd60e51b815260040161035590611146565b6000610a99610d77565b60405180602001604052808588880381610aaf57fe5b046001600160e01b031690529050610acf610aca8285610bcf565b610c2e565b6001600160901b03169695505050505050565b63ffffffff421690565b610af4610d77565b60008211610b145760405162461bcd60e51b815260040161035590611092565b82610b2e5750604080516020810190915260008152610663565b6001600160901b038311610b9557600082607085901b81610b4b57fe5b0490506001600160e01b03811115610b755760405162461bcd60e51b81526004016103559061110f565b6040518060200160405280826001600160e01b0316815250915050610663565b6000610ba684600160701b85610c35565b90506001600160e01b03811115610b755760405162461bcd60e51b81526004016103559061110f565b610bd7610d89565b6000821580610bfd57505082516001600160e01b031682810290838281610bfa57fe5b04145b610c195760405162461bcd60e51b815260040161035590611016565b60408051602081019091529081529392505050565b5160701c90565b6000806000610c448686610cb9565b9150915060008480610c5257fe5b868809905082811115610c66576001820391505b918290039181610c8457848381610c7957fe5b04935050505061042a565b848210610ca35760405162461bcd60e51b8152600401610355906110d8565b610cae838387610ce6565b979650505050505050565b6000808060001984860990508385029250828103915082811015610cde576001820391505b509250929050565b60008181038216808381610cf657fe5b049250808581610d0257fe5b049450808160000381610d1157fe5b60028581038087028203028087028203028087028203028087028203028087028203028087028203029586029003909402930460010193909302939093010292915050565b60405180606001604052806000815260200160008152602001600081525090565b60408051602081019091526000815290565b6040518060200160405280600081525090565b80356001600160a01b038116811461066357600080fd5b600060208284031215610dc4578081fd5b61042a8383610d9c565b60008060408385031215610de0578081fd5b610dea8484610d9c565b9150610df98460208501610d9c565b90509250929050565b60008060408385031215610e14578182fd5b610e1e8484610d9c565b946020939093013593505050565b600080600060608486031215610e40578081fd5b8335610e4b816111d9565b9250602084013591506040840135610e62816111d9565b809150509250925092565b600080600060608486031215610e81578283fd5b8351610e8c816111f1565b6020850151909350610e9d816111f1565b604085015190925063ffffffff81168114610e62578182fd5b600060208284031215610ec7578081fd5b5035919050565b600060208284031215610edf578081fd5b5051919050565b6bffffffffffffffffffffffff19606093841b811682529190921b16601482015260280190565b6001600160f81b0319815260609290921b6bffffffffffffffffffffffff1916600183015260158201527fe18a34eb0e04b04f7a0ac29a6e80748dca96319b42c54d679cb821dca90c6303603582015260550190565b6001600160a01b0391909116815260200190565b60208082526033908201527f536c6964696e6757696e646f774f7261636c653a204d495353494e475f4849536040820152722a27a924a1a0a62fa7a129a2a92b20aa24a7a760691b606082015260800190565b6020808252602c908201527f536c6964696e6757696e646f774f7261636c653a20554e45585045435445445f60408201526b1512535157d153105414d15160a21b606082015260800190565b60208082526019908201527f4669786564506f696e743a3a6d756c3a206f766572666c6f7700000000000000604082015260600190565b60208082526025908201527f556e697377617056324c6962726172793a204944454e544943414c5f41444452604082015264455353455360d81b606082015260800190565b60208082526026908201527f4669786564506f696e743a3a6672616374696f6e3a206469766973696f6e206260408201526579207a65726f60d01b606082015260800190565b6020808252601a908201527f46756c6c4d6174683a2046554c4c4449565f4f564552464c4f57000000000000604082015260600190565b6020808252601e908201527f4669786564506f696e743a3a6672616374696f6e3a206f766572666c6f770000604082015260600190565b6020808252601e908201527f556e697377617056324c6962726172793a205a45524f5f414444524553530000604082015260600190565b81518152602080830151908201526040918201519181019190915260600190565b90815260200190565b918252602082015260400190565b9283526020830191909152604082015260600190565b60ff91909116815260200190565b6001600160a01b03811681146111ee57600080fd5b50565b6001600160701b03811681146111ee57600080fdfea2646970667358221220d0dbc433252d892a60e907f78aa8fc8ec9113a01a6ebddf6deca3aa4b58890f564736f6c634300060c0033",
  "linkReferences": {},
  "deployedLinkReferences": {}
}